{
	"data": {
		"bytecode": {
			"linkReferences": {},
			"object": "6080604052348015600e575f5ffd5b50610b3f8061001c5f395ff3fe608060405234801561000f575f5ffd5b506004361061004a575f3560e01c80630d58c96a1461004e57806398ad7a7f1461007e578063a8cb5705146100b0578063e34f1221146100cc575b5f5ffd5b61006860048036038101906100639190610439565b6100e8565b604051610075919061047c565b60405180910390f35b610098600480360381019061009391906104bf565b6100fd565b6040516100a793929190610587565b60405180910390f35b6100ca60048036038101906100c591906105c3565b6101bf565b005b6100e660048036038101906100e1919061071a565b61028f565b005b6001602052805f5260405f205f915090505481565b5f602052815f5260405f20602052805f5260405f205f9150915050805f01549080600101805461012c9061078e565b80601f01602080910402602001604051908101604052809291908181526020018280546101589061078e565b80156101a35780601f1061017a576101008083540402835291602001916101a3565b820191905f5260205f20905b81548152906001019060200180831161018657829003601f168201915b505050505090806002015f9054906101000a900460ff16905083565b5f5f5f3373ffffffffffffffffffffffffffffffffffffffff1673ffffffffffffffffffffffffffffffffffffffff1681526020019081526020015f205f8381526020019081526020015f2090505f81600101805461021d9061078e565b90501161025f576040517f08c379a000000000000000000000000000000000000000000000000000000000815260040161025690610808565b60405180910390fd5b806002015f9054906101000a900460ff1615816002015f6101000a81548160ff0219169083151502179055505050565b5f60015f3373ffffffffffffffffffffffffffffffffffffffff1673ffffffffffffffffffffffffffffffffffffffff1681526020019081526020015f2054905060405180606001604052808281526020018381526020015f15158152505f5f3373ffffffffffffffffffffffffffffffffffffffff1673ffffffffffffffffffffffffffffffffffffffff1681526020019081526020015f205f8381526020019081526020015f205f820151815f0155602082015181600101908161035591906109c6565b506040820151816002015f6101000a81548160ff02191690831515021790555090505060015f3373ffffffffffffffffffffffffffffffffffffffff1673ffffffffffffffffffffffffffffffffffffffff1681526020019081526020015f205f8154809291906103c590610ac2565b91905055505050565b5f604051905090565b5f5ffd5b5f5ffd5b5f73ffffffffffffffffffffffffffffffffffffffff82169050919050565b5f610408826103df565b9050919050565b610418816103fe565b8114610422575f5ffd5b50565b5f813590506104338161040f565b92915050565b5f6020828403121561044e5761044d6103d7565b5b5f61045b84828501610425565b91505092915050565b5f819050919050565b61047681610464565b82525050565b5f60208201905061048f5f83018461046d565b92915050565b61049e81610464565b81146104a8575f5ffd5b50565b5f813590506104b981610495565b92915050565b5f5f604083850312156104d5576104d46103d7565b5b5f6104e285828601610425565b92505060206104f3858286016104ab565b9150509250929050565b5f81519050919050565b5f82825260208201905092915050565b8281835e5f83830152505050565b5f601f19601f8301169050919050565b5f61053f826104fd565b6105498185610507565b9350610559818560208601610517565b61056281610525565b840191505092915050565b5f8115159050919050565b6105818161056d565b82525050565b5f60608201905061059a5f83018661046d565b81810360208301526105ac8185610535565b90506105bb6040830184610578565b949350505050565b5f602082840312156105d8576105d76103d7565b5b5f6105e5848285016104ab565b91505092915050565b5f5ffd5b5f5ffd5b7f4e487b71000000000000000000000000000000000000000000000000000000005f52604160045260245ffd5b61062c82610525565b810181811067ffffffffffffffff8211171561064b5761064a6105f6565b5b80604052505050565b5f61065d6103ce565b90506106698282610623565b919050565b5f67ffffffffffffffff821115610688576106876105f6565b5b61069182610525565b9050602081019050919050565b828183375f83830152505050565b5f6106be6106b98461066e565b610654565b9050828152602081018484840111156106da576106d96105f2565b5b6106e584828561069e565b509392505050565b5f82601f830112610701576107006105ee565b5b81356107118482602086016106ac565b91505092915050565b5f6020828403121561072f5761072e6103d7565b5b5f82013567ffffffffffffffff81111561074c5761074b6103db565b5b610758848285016106ed565b91505092915050565b7f4e487b71000000000000000000000000000000000000000000000000000000005f52602260045260245ffd5b5f60028204905060018216806107a557607f821691505b6020821081036107b8576107b7610761565b5b50919050565b7f546f646f20646f6573206e6f742065786973742e0000000000000000000000005f82015250565b5f6107f2601483610507565b91506107fd826107be565b602082019050919050565b5f6020820190508181035f83015261081f816107e6565b9050919050565b5f819050815f5260205f209050919050565b5f6020601f8301049050919050565b5f82821b905092915050565b5f600883026108827fffffffffffffffffffffffffffffffffffffffffffffffffffffffffffffffff82610847565b61088c8683610847565b95508019841693508086168417925050509392505050565b5f819050919050565b5f6108c76108c26108bd84610464565b6108a4565b610464565b9050919050565b5f819050919050565b6108e0836108ad565b6108f46108ec826108ce565b848454610853565b825550505050565b5f5f905090565b61090b6108fc565b6109168184846108d7565b505050565b5b818110156109395761092e5f82610903565b60018101905061091c565b5050565b601f82111561097e5761094f81610826565b61095884610838565b81016020851015610967578190505b61097b61097385610838565b83018261091b565b50505b505050565b5f82821c905092915050565b5f61099e5f1984600802610983565b1980831691505092915050565b5f6109b6838361098f565b9150826002028217905092915050565b6109cf826104fd565b67ffffffffffffffff8111156109e8576109e76105f6565b5b6109f2825461078e565b6109fd82828561093d565b5f60209050601f831160018114610a2e575f8415610a1c578287015190505b610a2685826109ab565b865550610a8d565b601f198416610a3c86610826565b5f5b82811015610a6357848901518255600182019150602085019450602081019050610a3e565b86831015610a805784890151610a7c601f89168261098f565b8355505b6001600288020188555050505b505050505050565b7f4e487b71000000000000000000000000000000000000000000000000000000005f52601160045260245ffd5b5f610acc82610464565b91507fffffffffffffffffffffffffffffffffffffffffffffffffffffffffffffffff8203610afe57610afd610a95565b5b60018201905091905056fea2646970667358221220f12b6b5cb425c76a88409a35d3919b95770bf9124612ff36449003ebd9e3a3d164736f6c634300081e0033",
			"opcodes": "PUSH1 0x80 PUSH1 0x40 MSTORE CALLVALUE DUP1 ISZERO PUSH1 0xE JUMPI PUSH0 PUSH0 REVERT JUMPDEST POP PUSH2 0xB3F DUP1 PUSH2 0x1C PUSH0 CODECOPY PUSH0 RETURN INVALID PUSH1 0x80 PUSH1 0x40 MSTORE CALLVALUE DUP1 ISZERO PUSH2 0xF JUMPI PUSH0 PUSH0 REVERT JUMPDEST POP PUSH1 0x4 CALLDATASIZE LT PUSH2 0x4A JUMPI PUSH0 CALLDATALOAD PUSH1 0xE0 SHR DUP1 PUSH4 0xD58C96A EQ PUSH2 0x4E JUMPI DUP1 PUSH4 0x98AD7A7F EQ PUSH2 0x7E JUMPI DUP1 PUSH4 0xA8CB5705 EQ PUSH2 0xB0 JUMPI DUP1 PUSH4 0xE34F1221 EQ PUSH2 0xCC JUMPI JUMPDEST PUSH0 PUSH0 REVERT JUMPDEST PUSH2 0x68 PUSH1 0x4 DUP1 CALLDATASIZE SUB DUP2 ADD SWAP1 PUSH2 0x63 SWAP2 SWAP1 PUSH2 0x439 JUMP JUMPDEST PUSH2 0xE8 JUMP JUMPDEST PUSH1 0x40 MLOAD PUSH2 0x75 SWAP2 SWAP1 PUSH2 0x47C JUMP JUMPDEST PUSH1 0x40 MLOAD DUP1 SWAP2 SUB SWAP1 RETURN JUMPDEST PUSH2 0x98 PUSH1 0x4 DUP1 CALLDATASIZE SUB DUP2 ADD SWAP1 PUSH2 0x93 SWAP2 SWAP1 PUSH2 0x4BF JUMP JUMPDEST PUSH2 0xFD JUMP JUMPDEST PUSH1 0x40 MLOAD PUSH2 0xA7 SWAP4 SWAP3 SWAP2 SWAP1 PUSH2 0x587 JUMP JUMPDEST PUSH1 0x40 MLOAD DUP1 SWAP2 SUB SWAP1 RETURN JUMPDEST PUSH2 0xCA PUSH1 0x4 DUP1 CALLDATASIZE SUB DUP2 ADD SWAP1 PUSH2 0xC5 SWAP2 SWAP1 PUSH2 0x5C3 JUMP JUMPDEST PUSH2 0x1BF JUMP JUMPDEST STOP JUMPDEST PUSH2 0xE6 PUSH1 0x4 DUP1 CALLDATASIZE SUB DUP2 ADD SWAP1 PUSH2 0xE1 SWAP2 SWAP1 PUSH2 0x71A JUMP JUMPDEST PUSH2 0x28F JUMP JUMPDEST STOP JUMPDEST PUSH1 0x1 PUSH1 0x20 MSTORE DUP1 PUSH0 MSTORE PUSH1 0x40 PUSH0 KECCAK256 PUSH0 SWAP2 POP SWAP1 POP SLOAD DUP2 JUMP JUMPDEST PUSH0 PUSH1 0x20 MSTORE DUP2 PUSH0 MSTORE PUSH1 0x40 PUSH0 KECCAK256 PUSH1 0x20 MSTORE DUP1 PUSH0 MSTORE PUSH1 0x40 PUSH0 KECCAK256 PUSH0 SWAP2 POP SWAP2 POP POP DUP1 PUSH0 ADD SLOAD SWAP1 DUP1 PUSH1 0x1 ADD DUP1 SLOAD PUSH2 0x12C SWAP1 PUSH2 0x78E JUMP JUMPDEST DUP1 PUSH1 0x1F ADD PUSH1 0x20 DUP1 SWAP2 DIV MUL PUSH1 0x20 ADD PUSH1 0x40 MLOAD SWAP1 DUP2 ADD PUSH1 0x40 MSTORE DUP1 SWAP3 SWAP2 SWAP1 DUP2 DUP2 MSTORE PUSH1 0x20 ADD DUP3 DUP1 SLOAD PUSH2 0x158 SWAP1 PUSH2 0x78E JUMP JUMPDEST DUP1 ISZERO PUSH2 0x1A3 JUMPI DUP1 PUSH1 0x1F LT PUSH2 0x17A JUMPI PUSH2 0x100 DUP1 DUP4 SLOAD DIV MUL DUP4 MSTORE SWAP2 PUSH1 0x20 ADD SWAP2 PUSH2 0x1A3 JUMP JUMPDEST DUP3 ADD SWAP2 SWAP1 PUSH0 MSTORE PUSH1 0x20 PUSH0 KECCAK256 SWAP1 JUMPDEST DUP2 SLOAD DUP2 MSTORE SWAP1 PUSH1 0x1 ADD SWAP1 PUSH1 0x20 ADD DUP1 DUP4 GT PUSH2 0x186 JUMPI DUP3 SWAP1 SUB PUSH1 0x1F AND DUP3 ADD SWAP2 JUMPDEST POP POP POP POP POP SWAP1 DUP1 PUSH1 0x2 ADD PUSH0 SWAP1 SLOAD SWAP1 PUSH2 0x100 EXP SWAP1 DIV PUSH1 0xFF AND SWAP1 POP DUP4 JUMP JUMPDEST PUSH0 PUSH0 PUSH0 CALLER PUSH20 0xFFFFFFFFFFFFFFFFFFFFFFFFFFFFFFFFFFFFFFFF AND PUSH20 0xFFFFFFFFFFFFFFFFFFFFFFFFFFFFFFFFFFFFFFFF AND DUP2 MSTORE PUSH1 0x20 ADD SWAP1 DUP2 MSTORE PUSH1 0x20 ADD PUSH0 KECCAK256 PUSH0 DUP4 DUP2 MSTORE PUSH1 0x20 ADD SWAP1 DUP2 MSTORE PUSH1 0x20 ADD PUSH0 KECCAK256 SWAP1 POP PUSH0 DUP2 PUSH1 0x1 ADD DUP1 SLOAD PUSH2 0x21D SWAP1 PUSH2 0x78E JUMP JUMPDEST SWAP1 POP GT PUSH2 0x25F JUMPI PUSH1 0x40 MLOAD PUSH32 0x8C379A000000000000000000000000000000000000000000000000000000000 DUP2 MSTORE PUSH1 0x4 ADD PUSH2 0x256 SWAP1 PUSH2 0x808 JUMP JUMPDEST PUSH1 0x40 MLOAD DUP1 SWAP2 SUB SWAP1 REVERT JUMPDEST DUP1 PUSH1 0x2 ADD PUSH0 SWAP1 SLOAD SWAP1 PUSH2 0x100 EXP SWAP1 DIV PUSH1 0xFF AND ISZERO DUP2 PUSH1 0x2 ADD PUSH0 PUSH2 0x100 EXP DUP2 SLOAD DUP2 PUSH1 0xFF MUL NOT AND SWAP1 DUP4 ISZERO ISZERO MUL OR SWAP1 SSTORE POP POP POP JUMP JUMPDEST PUSH0 PUSH1 0x1 PUSH0 CALLER PUSH20 0xFFFFFFFFFFFFFFFFFFFFFFFFFFFFFFFFFFFFFFFF AND PUSH20 0xFFFFFFFFFFFFFFFFFFFFFFFFFFFFFFFFFFFFFFFF AND DUP2 MSTORE PUSH1 0x20 ADD SWAP1 DUP2 MSTORE PUSH1 0x20 ADD PUSH0 KECCAK256 SLOAD SWAP1 POP PUSH1 0x40 MLOAD DUP1 PUSH1 0x60 ADD PUSH1 0x40 MSTORE DUP1 DUP3 DUP2 MSTORE PUSH1 0x20 ADD DUP4 DUP2 MSTORE PUSH1 0x20 ADD PUSH0 ISZERO ISZERO DUP2 MSTORE POP PUSH0 PUSH0 CALLER PUSH20 0xFFFFFFFFFFFFFFFFFFFFFFFFFFFFFFFFFFFFFFFF AND PUSH20 0xFFFFFFFFFFFFFFFFFFFFFFFFFFFFFFFFFFFFFFFF AND DUP2 MSTORE PUSH1 0x20 ADD SWAP1 DUP2 MSTORE PUSH1 0x20 ADD PUSH0 KECCAK256 PUSH0 DUP4 DUP2 MSTORE PUSH1 0x20 ADD SWAP1 DUP2 MSTORE PUSH1 0x20 ADD PUSH0 KECCAK256 PUSH0 DUP3 ADD MLOAD DUP2 PUSH0 ADD SSTORE PUSH1 0x20 DUP3 ADD MLOAD DUP2 PUSH1 0x1 ADD SWAP1 DUP2 PUSH2 0x355 SWAP2 SWAP1 PUSH2 0x9C6 JUMP JUMPDEST POP PUSH1 0x40 DUP3 ADD MLOAD DUP2 PUSH1 0x2 ADD PUSH0 PUSH2 0x100 EXP DUP2 SLOAD DUP2 PUSH1 0xFF MUL NOT AND SWAP1 DUP4 ISZERO ISZERO MUL OR SWAP1 SSTORE POP SWAP1 POP POP PUSH1 0x1 PUSH0 CALLER PUSH20 0xFFFFFFFFFFFFFFFFFFFFFFFFFFFFFFFFFFFFFFFF AND PUSH20 0xFFFFFFFFFFFFFFFFFFFFFFFFFFFFFFFFFFFFFFFF AND DUP2 MSTORE PUSH1 0x20 ADD SWAP1 DUP2 MSTORE PUSH1 0x20 ADD PUSH0 KECCAK256 PUSH0 DUP2 SLOAD DUP1 SWAP3 SWAP2 SWAP1 PUSH2 0x3C5 SWAP1 PUSH2 0xAC2 JUMP JUMPDEST SWAP2 SWAP1 POP SSTORE POP POP POP JUMP JUMPDEST PUSH0 PUSH1 0x40 MLOAD SWAP1 POP SWAP1 JUMP JUMPDEST PUSH0 PUSH0 REVERT JUMPDEST PUSH0 PUSH0 REVERT JUMPDEST PUSH0 PUSH20 0xFFFFFFFFFFFFFFFFFFFFFFFFFFFFFFFFFFFFFFFF DUP3 AND SWAP1 POP SWAP2 SWAP1 POP JUMP JUMPDEST PUSH0 PUSH2 0x408 DUP3 PUSH2 0x3DF JUMP JUMPDEST SWAP1 POP SWAP2 SWAP1 POP JUMP JUMPDEST PUSH2 0x418 DUP2 PUSH2 0x3FE JUMP JUMPDEST DUP2 EQ PUSH2 0x422 JUMPI PUSH0 PUSH0 REVERT JUMPDEST POP JUMP JUMPDEST PUSH0 DUP2 CALLDATALOAD SWAP1 POP PUSH2 0x433 DUP2 PUSH2 0x40F JUMP JUMPDEST SWAP3 SWAP2 POP POP JUMP JUMPDEST PUSH0 PUSH1 0x20 DUP3 DUP5 SUB SLT ISZERO PUSH2 0x44E JUMPI PUSH2 0x44D PUSH2 0x3D7 JUMP JUMPDEST JUMPDEST PUSH0 PUSH2 0x45B DUP5 DUP3 DUP6 ADD PUSH2 0x425 JUMP JUMPDEST SWAP2 POP POP SWAP3 SWAP2 POP POP JUMP JUMPDEST PUSH0 DUP2 SWAP1 POP SWAP2 SWAP1 POP JUMP JUMPDEST PUSH2 0x476 DUP2 PUSH2 0x464 JUMP JUMPDEST DUP3 MSTORE POP POP JUMP JUMPDEST PUSH0 PUSH1 0x20 DUP3 ADD SWAP1 POP PUSH2 0x48F PUSH0 DUP4 ADD DUP5 PUSH2 0x46D JUMP JUMPDEST SWAP3 SWAP2 POP POP JUMP JUMPDEST PUSH2 0x49E DUP2 PUSH2 0x464 JUMP JUMPDEST DUP2 EQ PUSH2 0x4A8 JUMPI PUSH0 PUSH0 REVERT JUMPDEST POP JUMP JUMPDEST PUSH0 DUP2 CALLDATALOAD SWAP1 POP PUSH2 0x4B9 DUP2 PUSH2 0x495 JUMP JUMPDEST SWAP3 SWAP2 POP POP JUMP JUMPDEST PUSH0 PUSH0 PUSH1 0x40 DUP4 DUP6 SUB SLT ISZERO PUSH2 0x4D5 JUMPI PUSH2 0x4D4 PUSH2 0x3D7 JUMP JUMPDEST JUMPDEST PUSH0 PUSH2 0x4E2 DUP6 DUP3 DUP7 ADD PUSH2 0x425 JUMP JUMPDEST SWAP3 POP POP PUSH1 0x20 PUSH2 0x4F3 DUP6 DUP3 DUP7 ADD PUSH2 0x4AB JUMP JUMPDEST SWAP2 POP POP SWAP3 POP SWAP3 SWAP1 POP JUMP JUMPDEST PUSH0 DUP2 MLOAD SWAP1 POP SWAP2 SWAP1 POP JUMP JUMPDEST PUSH0 DUP3 DUP3 MSTORE PUSH1 0x20 DUP3 ADD SWAP1 POP SWAP3 SWAP2 POP POP JUMP JUMPDEST DUP3 DUP2 DUP4 MCOPY PUSH0 DUP4 DUP4 ADD MSTORE POP POP POP JUMP JUMPDEST PUSH0 PUSH1 0x1F NOT PUSH1 0x1F DUP4 ADD AND SWAP1 POP SWAP2 SWAP1 POP JUMP JUMPDEST PUSH0 PUSH2 0x53F DUP3 PUSH2 0x4FD JUMP JUMPDEST PUSH2 0x549 DUP2 DUP6 PUSH2 0x507 JUMP JUMPDEST SWAP4 POP PUSH2 0x559 DUP2 DUP6 PUSH1 0x20 DUP7 ADD PUSH2 0x517 JUMP JUMPDEST PUSH2 0x562 DUP2 PUSH2 0x525 JUMP JUMPDEST DUP5 ADD SWAP2 POP POP SWAP3 SWAP2 POP POP JUMP JUMPDEST PUSH0 DUP2 ISZERO ISZERO SWAP1 POP SWAP2 SWAP1 POP JUMP JUMPDEST PUSH2 0x581 DUP2 PUSH2 0x56D JUMP JUMPDEST DUP3 MSTORE POP POP JUMP JUMPDEST PUSH0 PUSH1 0x60 DUP3 ADD SWAP1 POP PUSH2 0x59A PUSH0 DUP4 ADD DUP7 PUSH2 0x46D JUMP JUMPDEST DUP2 DUP2 SUB PUSH1 0x20 DUP4 ADD MSTORE PUSH2 0x5AC DUP2 DUP6 PUSH2 0x535 JUMP JUMPDEST SWAP1 POP PUSH2 0x5BB PUSH1 0x40 DUP4 ADD DUP5 PUSH2 0x578 JUMP JUMPDEST SWAP5 SWAP4 POP POP POP POP JUMP JUMPDEST PUSH0 PUSH1 0x20 DUP3 DUP5 SUB SLT ISZERO PUSH2 0x5D8 JUMPI PUSH2 0x5D7 PUSH2 0x3D7 JUMP JUMPDEST JUMPDEST PUSH0 PUSH2 0x5E5 DUP5 DUP3 DUP6 ADD PUSH2 0x4AB JUMP JUMPDEST SWAP2 POP POP SWAP3 SWAP2 POP POP JUMP JUMPDEST PUSH0 PUSH0 REVERT JUMPDEST PUSH0 PUSH0 REVERT JUMPDEST PUSH32 0x4E487B7100000000000000000000000000000000000000000000000000000000 PUSH0 MSTORE PUSH1 0x41 PUSH1 0x4 MSTORE PUSH1 0x24 PUSH0 REVERT JUMPDEST PUSH2 0x62C DUP3 PUSH2 0x525 JUMP JUMPDEST DUP2 ADD DUP2 DUP2 LT PUSH8 0xFFFFFFFFFFFFFFFF DUP3 GT OR ISZERO PUSH2 0x64B JUMPI PUSH2 0x64A PUSH2 0x5F6 JUMP JUMPDEST JUMPDEST DUP1 PUSH1 0x40 MSTORE POP POP POP JUMP JUMPDEST PUSH0 PUSH2 0x65D PUSH2 0x3CE JUMP JUMPDEST SWAP1 POP PUSH2 0x669 DUP3 DUP3 PUSH2 0x623 JUMP JUMPDEST SWAP2 SWAP1 POP JUMP JUMPDEST PUSH0 PUSH8 0xFFFFFFFFFFFFFFFF DUP3 GT ISZERO PUSH2 0x688 JUMPI PUSH2 0x687 PUSH2 0x5F6 JUMP JUMPDEST JUMPDEST PUSH2 0x691 DUP3 PUSH2 0x525 JUMP JUMPDEST SWAP1 POP PUSH1 0x20 DUP2 ADD SWAP1 POP SWAP2 SWAP1 POP JUMP JUMPDEST DUP3 DUP2 DUP4 CALLDATACOPY PUSH0 DUP4 DUP4 ADD MSTORE POP POP POP JUMP JUMPDEST PUSH0 PUSH2 0x6BE PUSH2 0x6B9 DUP5 PUSH2 0x66E JUMP JUMPDEST PUSH2 0x654 JUMP JUMPDEST SWAP1 POP DUP3 DUP2 MSTORE PUSH1 0x20 DUP2 ADD DUP5 DUP5 DUP5 ADD GT ISZERO PUSH2 0x6DA JUMPI PUSH2 0x6D9 PUSH2 0x5F2 JUMP JUMPDEST JUMPDEST PUSH2 0x6E5 DUP5 DUP3 DUP6 PUSH2 0x69E JUMP JUMPDEST POP SWAP4 SWAP3 POP POP POP JUMP JUMPDEST PUSH0 DUP3 PUSH1 0x1F DUP4 ADD SLT PUSH2 0x701 JUMPI PUSH2 0x700 PUSH2 0x5EE JUMP JUMPDEST JUMPDEST DUP2 CALLDATALOAD PUSH2 0x711 DUP5 DUP3 PUSH1 0x20 DUP7 ADD PUSH2 0x6AC JUMP JUMPDEST SWAP2 POP POP SWAP3 SWAP2 POP POP JUMP JUMPDEST PUSH0 PUSH1 0x20 DUP3 DUP5 SUB SLT ISZERO PUSH2 0x72F JUMPI PUSH2 0x72E PUSH2 0x3D7 JUMP JUMPDEST JUMPDEST PUSH0 DUP3 ADD CALLDATALOAD PUSH8 0xFFFFFFFFFFFFFFFF DUP2 GT ISZERO PUSH2 0x74C JUMPI PUSH2 0x74B PUSH2 0x3DB JUMP JUMPDEST JUMPDEST PUSH2 0x758 DUP5 DUP3 DUP6 ADD PUSH2 0x6ED JUMP JUMPDEST SWAP2 POP POP SWAP3 SWAP2 POP POP JUMP JUMPDEST PUSH32 0x4E487B7100000000000000000000000000000000000000000000000000000000 PUSH0 MSTORE PUSH1 0x22 PUSH1 0x4 MSTORE PUSH1 0x24 PUSH0 REVERT JUMPDEST PUSH0 PUSH1 0x2 DUP3 DIV SWAP1 POP PUSH1 0x1 DUP3 AND DUP1 PUSH2 0x7A5 JUMPI PUSH1 0x7F DUP3 AND SWAP2 POP JUMPDEST PUSH1 0x20 DUP3 LT DUP2 SUB PUSH2 0x7B8 JUMPI PUSH2 0x7B7 PUSH2 0x761 JUMP JUMPDEST JUMPDEST POP SWAP2 SWAP1 POP JUMP JUMPDEST PUSH32 0x546F646F20646F6573206E6F742065786973742E000000000000000000000000 PUSH0 DUP3 ADD MSTORE POP JUMP JUMPDEST PUSH0 PUSH2 0x7F2 PUSH1 0x14 DUP4 PUSH2 0x507 JUMP JUMPDEST SWAP2 POP PUSH2 0x7FD DUP3 PUSH2 0x7BE JUMP JUMPDEST PUSH1 0x20 DUP3 ADD SWAP1 POP SWAP2 SWAP1 POP JUMP JUMPDEST PUSH0 PUSH1 0x20 DUP3 ADD SWAP1 POP DUP2 DUP2 SUB PUSH0 DUP4 ADD MSTORE PUSH2 0x81F DUP2 PUSH2 0x7E6 JUMP JUMPDEST SWAP1 POP SWAP2 SWAP1 POP JUMP JUMPDEST PUSH0 DUP2 SWAP1 POP DUP2 PUSH0 MSTORE PUSH1 0x20 PUSH0 KECCAK256 SWAP1 POP SWAP2 SWAP1 POP JUMP JUMPDEST PUSH0 PUSH1 0x20 PUSH1 0x1F DUP4 ADD DIV SWAP1 POP SWAP2 SWAP1 POP JUMP JUMPDEST PUSH0 DUP3 DUP3 SHL SWAP1 POP SWAP3 SWAP2 POP POP JUMP JUMPDEST PUSH0 PUSH1 0x8 DUP4 MUL PUSH2 0x882 PUSH32 0xFFFFFFFFFFFFFFFFFFFFFFFFFFFFFFFFFFFFFFFFFFFFFFFFFFFFFFFFFFFFFFFF DUP3 PUSH2 0x847 JUMP JUMPDEST PUSH2 0x88C DUP7 DUP4 PUSH2 0x847 JUMP JUMPDEST SWAP6 POP DUP1 NOT DUP5 AND SWAP4 POP DUP1 DUP7 AND DUP5 OR SWAP3 POP POP POP SWAP4 SWAP3 POP POP POP JUMP JUMPDEST PUSH0 DUP2 SWAP1 POP SWAP2 SWAP1 POP JUMP JUMPDEST PUSH0 PUSH2 0x8C7 PUSH2 0x8C2 PUSH2 0x8BD DUP5 PUSH2 0x464 JUMP JUMPDEST PUSH2 0x8A4 JUMP JUMPDEST PUSH2 0x464 JUMP JUMPDEST SWAP1 POP SWAP2 SWAP1 POP JUMP JUMPDEST PUSH0 DUP2 SWAP1 POP SWAP2 SWAP1 POP JUMP JUMPDEST PUSH2 0x8E0 DUP4 PUSH2 0x8AD JUMP JUMPDEST PUSH2 0x8F4 PUSH2 0x8EC DUP3 PUSH2 0x8CE JUMP JUMPDEST DUP5 DUP5 SLOAD PUSH2 0x853 JUMP JUMPDEST DUP3 SSTORE POP POP POP POP JUMP JUMPDEST PUSH0 PUSH0 SWAP1 POP SWAP1 JUMP JUMPDEST PUSH2 0x90B PUSH2 0x8FC JUMP JUMPDEST PUSH2 0x916 DUP2 DUP5 DUP5 PUSH2 0x8D7 JUMP JUMPDEST POP POP POP JUMP JUMPDEST JUMPDEST DUP2 DUP2 LT ISZERO PUSH2 0x939 JUMPI PUSH2 0x92E PUSH0 DUP3 PUSH2 0x903 JUMP JUMPDEST PUSH1 0x1 DUP2 ADD SWAP1 POP PUSH2 0x91C JUMP JUMPDEST POP POP JUMP JUMPDEST PUSH1 0x1F DUP3 GT ISZERO PUSH2 0x97E JUMPI PUSH2 0x94F DUP2 PUSH2 0x826 JUMP JUMPDEST PUSH2 0x958 DUP5 PUSH2 0x838 JUMP JUMPDEST DUP2 ADD PUSH1 0x20 DUP6 LT ISZERO PUSH2 0x967 JUMPI DUP2 SWAP1 POP JUMPDEST PUSH2 0x97B PUSH2 0x973 DUP6 PUSH2 0x838 JUMP JUMPDEST DUP4 ADD DUP3 PUSH2 0x91B JUMP JUMPDEST POP POP JUMPDEST POP POP POP JUMP JUMPDEST PUSH0 DUP3 DUP3 SHR SWAP1 POP SWAP3 SWAP2 POP POP JUMP JUMPDEST PUSH0 PUSH2 0x99E PUSH0 NOT DUP5 PUSH1 0x8 MUL PUSH2 0x983 JUMP JUMPDEST NOT DUP1 DUP4 AND SWAP2 POP POP SWAP3 SWAP2 POP POP JUMP JUMPDEST PUSH0 PUSH2 0x9B6 DUP4 DUP4 PUSH2 0x98F JUMP JUMPDEST SWAP2 POP DUP3 PUSH1 0x2 MUL DUP3 OR SWAP1 POP SWAP3 SWAP2 POP POP JUMP JUMPDEST PUSH2 0x9CF DUP3 PUSH2 0x4FD JUMP JUMPDEST PUSH8 0xFFFFFFFFFFFFFFFF DUP2 GT ISZERO PUSH2 0x9E8 JUMPI PUSH2 0x9E7 PUSH2 0x5F6 JUMP JUMPDEST JUMPDEST PUSH2 0x9F2 DUP3 SLOAD PUSH2 0x78E JUMP JUMPDEST PUSH2 0x9FD DUP3 DUP3 DUP6 PUSH2 0x93D JUMP JUMPDEST PUSH0 PUSH1 0x20 SWAP1 POP PUSH1 0x1F DUP4 GT PUSH1 0x1 DUP2 EQ PUSH2 0xA2E JUMPI PUSH0 DUP5 ISZERO PUSH2 0xA1C JUMPI DUP3 DUP8 ADD MLOAD SWAP1 POP JUMPDEST PUSH2 0xA26 DUP6 DUP3 PUSH2 0x9AB JUMP JUMPDEST DUP7 SSTORE POP PUSH2 0xA8D JUMP JUMPDEST PUSH1 0x1F NOT DUP5 AND PUSH2 0xA3C DUP7 PUSH2 0x826 JUMP JUMPDEST PUSH0 JUMPDEST DUP3 DUP2 LT ISZERO PUSH2 0xA63 JUMPI DUP5 DUP10 ADD MLOAD DUP3 SSTORE PUSH1 0x1 DUP3 ADD SWAP2 POP PUSH1 0x20 DUP6 ADD SWAP5 POP PUSH1 0x20 DUP2 ADD SWAP1 POP PUSH2 0xA3E JUMP JUMPDEST DUP7 DUP4 LT ISZERO PUSH2 0xA80 JUMPI DUP5 DUP10 ADD MLOAD PUSH2 0xA7C PUSH1 0x1F DUP10 AND DUP3 PUSH2 0x98F JUMP JUMPDEST DUP4 SSTORE POP JUMPDEST PUSH1 0x1 PUSH1 0x2 DUP9 MUL ADD DUP9 SSTORE POP POP POP JUMPDEST POP POP POP POP POP POP JUMP JUMPDEST PUSH32 0x4E487B7100000000000000000000000000000000000000000000000000000000 PUSH0 MSTORE PUSH1 0x11 PUSH1 0x4 MSTORE PUSH1 0x24 PUSH0 REVERT JUMPDEST PUSH0 PUSH2 0xACC DUP3 PUSH2 0x464 JUMP JUMPDEST SWAP2 POP PUSH32 0xFFFFFFFFFFFFFFFFFFFFFFFFFFFFFFFFFFFFFFFFFFFFFFFFFFFFFFFFFFFFFFFF DUP3 SUB PUSH2 0xAFE JUMPI PUSH2 0xAFD PUSH2 0xA95 JUMP JUMPDEST JUMPDEST PUSH1 0x1 DUP3 ADD SWAP1 POP SWAP2 SWAP1 POP JUMP INVALID LOG2 PUSH5 0x6970667358 0x22 SLT KECCAK256 CALL 0x2B PUSH12 0x5CB425C76A88409A35D3919B SWAP6 PUSH24 0xBF9124612FF36449003EBD9E3A3D164736F6C634300081E STOP CALLER "
		},
		"gasEstimates": {
			"creation": {
				"codeDepositCost": "575800",
				"executionCost": "604",
				"totalCost": "576404"
			},
			"external": {
				"createTodo(string)": "infinite",
				"todoCount(address)": "2780",
				"toggleTodoCompleted(uint256)": "29273",
				"userTodos(address,uint256)": "infinite"
			}
		},
		"methodIdentifiers": {
			"createTodo(string)": "e34f1221",
			"todoCount(address)": "0d58c96a",
			"toggleTodoCompleted(uint256)": "a8cb5705",
			"userTodos(address,uint256)": "98ad7a7f"
		}
	},
	"abi": [
		{
			"inputs": [
				{
					"internalType": "string",
					"name": "_content",
					"type": "string"
				}
			],
			"name": "createTodo",
			"outputs": [],
			"stateMutability": "nonpayable",
			"type": "function"
		},
		{
			"inputs": [
				{
					"internalType": "address",
					"name": "",
					"type": "address"
				}
			],
			"name": "todoCount",
			"outputs": [
				{
					"internalType": "uint256",
					"name": "",
					"type": "uint256"
				}
			],
			"stateMutability": "view",
			"type": "function"
		},
		{
			"inputs": [
				{
					"internalType": "uint256",
					"name": "_id",
					"type": "uint256"
				}
			],
			"name": "toggleTodoCompleted",
			"outputs": [],
			"stateMutability": "nonpayable",
			"type": "function"
		},
		{
			"inputs": [
				{
					"internalType": "address",
					"name": "",
					"type": "address"
				},
				{
					"internalType": "uint256",
					"name": "",
					"type": "uint256"
				}
			],
			"name": "userTodos",
			"outputs": [
				{
					"internalType": "uint256",
					"name": "id",
					"type": "uint256"
				},
				{
					"internalType": "string",
					"name": "content",
					"type": "string"
				},
				{
					"internalType": "bool",
					"name": "isCompleted",
					"type": "bool"
				}
			],
			"stateMutability": "view",
			"type": "function"
		}
	]
}